:020000040000fa
:10000000f87f00200bea00001bdb0000fbe3000090
:1000100000000000000000000000000000000000e0
:1000200000000000000000000000000047d40000b5
:10003000000000000000000047d4000047d400008a
:1000400047d4000047d4000047d4000047d4000044
:1000500047d4000047d4000047d4000047d4000034
:1000600047d4000047d4000047d4000047d4000024
:1000700047d4000047d4000047d4000047d4000014
:1000800047d4000047d4000047d4000047d4000004
:1000900047d4000047d4000047d4000047d40000f4
:1000a00047d4000047d4000047d4000047d40000e4
:1000b00047d4000047d4000047d4000047d40000d4
:1000c00047d4000047d4000047d4000091c400008a
:1000d00091c4000091c4000091c4000047d4000006
:1000e00047d4000047d4000047d4000047d40000a4
:1000f00047d4000047d4000047d4000047d4000094
:1001000047d4000047d4000047d4000047d4000083
:1001100047d4000047d4000047d4000047d4000073
:1001200047d4000047d4000047d4000047d4000063
:1001300047d4000047d4000047d4000047d4000053
:1001400047d4000047d4000047d4000047d4000043
:1001500047d4000047d4000047d40000f87f0020b7
:100160000bea00001bdb0000fbe3000000000000c6
:10017000000000000000000000000000000000007f
:10018000000000000000000047d400000000000054
:100190000000000047d4000047d4000047d400000e
:1001a00047d4000047d4000047d4000047d40000e3
:1001b00047d4000047d4000047d4000047d40000d3
:1001c00047d4000047d4000047d4000047d40000c3
:1001d00047d4000047d4000047d4000047d40000b3
:1001e00047d4000047d4000047d4000047d40000a3
:1001f00047d4000047d4000047d4000047d4000093
:1002000047d4000047d4000047d4000047d4000082
:1002100047d4000047d4000047d4000047d4000072
:1002200047d4000047d400005fea00005fea000006
:100230005fea00005fea000047d4000047d40000f6
:1002400047d4000047d4000047d4000047d4000042
:1002500047d4000047d4000047d4000047d4000032
:1002600047d4000047d4000047d4000047d4000022
:1002700047d4000047d4000047d4000047d4000012
:1002800047d4000047d4000047d4000047d4000002
:1002900047d4000047d4000047d4000047d40000f2
:1002a00047d4000047d4000047d4000047d40000e2
:0802b00047d4000047d4000010
:020000040000fa
:1002b800401801000200030084468ef3008874474a
:1002c800f8b5c046f8bc08bc9e46704791ec0000e3
:1002d800f8b5c046f8bc08bc9e4670476dec0000f7
:020000040000fa
:0802e80014bc0000010000003d
:020000040000fa
:1002f000ffffffffffffffffffffffffffffffff0e
:10030000fffffffffffffffffffffffffffffffffd
:10031000ffffffffffffffffffffffffffffffffed
:10032000ffffffffffffffffffffffffffffffffdd
:102d1000ffff5ee7bcd6b9b5f89c768cd57b746bab
:102d2000946bf57b768cd89479ad9cd65eefffffe3
:102d3000ffffffffffffffffffffffffffffffffa3
:102d4000ffffffffffffffffffffffffffffffff93
:102d5000ffffffffffffffffffffffffffffffff83
:102d6000ffffffffffffffffffffffffffffffff73
:102d7000ffffffffffffffffffffffffffffffff63
:102d8000ffffffffffffffffffffffffffffffff53
:102d9000ffffffffffffffffffffffffffffffff43
:102da000ffffffffffffffffffffffffffffffff33
:102db000ffffffffffffffffffffffffffffffff23
:102dc000ffffffffffffffffffffffffffffffff13
:102dd000ffffffffffffffffffffffffffffffff03
:102de000fffffffffffffffffffffffffffffffff3
:102df000ffffffffffffffffffffffffffffffffe3
:102e0000ffffffffffffffffffffffffffffffffd2
:102e1000ffffffffffffffffffffffffffffffffc2
:102e2000ffffffffffffffffffffffffffffffffb2
:102e3000ffffffffffffffffffffffffffffffffa2
:102e4000ffffffffffffffffffff7eef1ac6768c3d
:102e500033635142d0316f290e19ed180e190e1936
:102e60000e19ee18ee180e196f29d0315142536326
:102e700097943bc6bff7ffffffffffffffffffff7a
:102e8000ffffffffffffffffffffffffffffffff52
:102e9000ffffffffffffffffffffffffffffffff42
:102ea000ffffffffffffffffffffffffffffffff32
:102eb000ffffffffffffffffffffffffffffffff22
:102ec000ffffffffffffffffffffffffffffffff12
:102ed000ffffffffffffffffffffffffffffffff02
:102ee000fffffffffffffffffffffffffffffffff2
:102ef000ffffffffffffffffffffffffffffffffe2
:102f0000ffffffffffffffffffffffffffffffffd1
:102f1000ffffffffffffffffffffffffffffffffc1
:102f2000ffffffffffffffffffffffffffffffffb1
:102f3000ffffffffffffffffffffffffffffffffa1
:102f4000ffffffffffffffffffffffffffffffff91
:102f5000ffffffffffffffffffffffffffffffff81
:102f6000ffffffffffffffffffffffffffffffff71
:102f7000ffffffffffffffffffffffffffffffff61
:102f8000ffffffffffff5bcef57b103a4e214e2186
:102f90002e210e194e21f039135bb5733584768cd2
:102fa000568cf57b946b914aaf312e212e214e2108
:102fb0004e216f2951425684bcd6ffffffffffff11
:102fc000ffffffffffffffffffffffffffffffff11
:102fd000ffffffffffffffffffffffffffffffff01
:102fe000fffffffffffffffffffffffffffffffff1
:102ff000ffffffffffffffffffffffffffffffffe1
:10300000ffffffffffffffffffffffffffffffffd0
:10301000ffffffffffffffffffffffffffffffffc0
:10302000ffffffffffffffffffffffffffffffffb0
:10303000ffffffffffffffffffffffffffffffffa0
:10304000ffffffffffffffffffffffffffffffff90
:10305000ffffffffffffffffffffffffffffffff80
:10306000ffffffffffffffffffffffffffffffff70
:10307000ffffffffffffffffffffffffffffffff60
:10308000ffffffffffffffffffffffffffffffff50
:10309000ffffffffffffffffffffffffffffffff40
:1030a000ffffffffffffffffffffffffffffffff30
:1030b000ffffffffffffffffffffffffffffffff20
:1030c000fffffabd33638f292e218f29af314e21a7
:1030d000f039d573bab53de7fffffffffffffffff4
:1030e000ffffffffffffbff7dcde38a5746bd031b9
:1030f0004e21af318f292e21af31946b5bceffff74
:10310000ffffffffffffffffffffffffffffffffcf
:10311000ffffffffffffffffffffffffffffffffbf
:10312000ffffffffffffffffffffffffffffffffaf
:10313000ffffffffffffffffffffffffffffffff9f
:10314000ffffffffffffffffffffffffffffffff8f
:10315000ffffffffffffffffffffffffffffffff7f
:10316000ffffffffffffffffffffffffffffffff6f
:10317000ffffffffffffffffffffffffffffffff5f
:10318000ffffffffffffffffffffffffffffffff4f
:10319000ffffffffffffffffffffffffffffffff3f
:1031a000ffffffffffffffffffffffffffffffff2f
:1031b000ffffffffffffffffffffffffffffffff1f
:1031c000ffffffffffffffffffffffffffffffff0f
:1031d000ffffffffffffffffffffffffffffffffff
:1031e000ffffffffffffffffffffffffffffffffef
:1031f000ffffffffffffffffffffffffffffbcd64b
:10320000746b4f214e21af31d0314e21d031768cad
:103210001de7ffffffffffffffffffffffffffffb8
:10322000ffffffffffffffffffffffffffffdcdef2
:103230003584af316f21d031af314e216f29d47336
:103240001de7ffffffffffffffffffffffffffff88
:10325000ffffffffffffffffffffffffffffffff7e
:10326000ffffffffffffffffffffffffffffffff6e
:10327000ffffffffffffffffffffffffffffffff5e
:10328000ffffffffffffffffffffffffffffffff4e
:10329000ffffffffffffffffffffffffffffffff3e
:1032a000ffffffffffffffffffffffffffffffff2e
:1032b000ffffffffffffffffffffffffffffffff1e
:1032c000ffffffffffffffffffffffffffffffff0e
:1032d000fffffffffffffffffffffffffffffffffe
:1032e000ffffffffffffffffffffffffffffffffee
:1032f000ffffffffffffffffffffffffffffffffde
:10330000ffffffffffffffffffffffffffffffffcd
:10331000ffffffffffffffffffffffffffffffffbd
:10332000ffffffffffffffffffffffffffffffffad
:10333000ffffffffffffffffffffffffd79caf3146
:103340004e21af31cf31af314e21746bfddeffff27
:10335000ffffffffffffffffffffffffffffffff7d
:10336000ffffffffffffffffffffffffffffffff6d
:10337000ffffbcd633634e21af31cf31af314e2189
:10338000f03938a5ffffffffffffffffffffffff43
:10339000ffffffffffffffffffffffffffffffff3d
:1033a000ffffffffffffffffffffffffffffffff2d
:1033b000ffffffffffffffffffffffffffffffff1d
:1033c000ffffffffffffffffffffffffffffffff0d
:1033d000fffffffffffffffffffffffffffffffffd
:1033e000ffffffffffffffffffffffffffffffffed
:1033f000ffffffffffffffffffffffffffffffffdd
:10340000ffffffffffffffffffffffffffffffffcc
:10341000ffffffffffffffffffffffffffffffffbc
:10342000ffffffffffffffffffffffffffffffffac
:10343000ffffffffffffffffffffffffffffffff9c
:10344000ffffffffffffffffffffffffffffffff8c
:10345000ffffffffffffffffffffffffffffffff7c
:10346000ffffffffffffffffffffffffffffffff6c
:10347000ffffffffffffffff5def33632e218f296b
:10348000af31af318f296f29f79cffffffffffff9f
:10349000ffffffffffffffffffffffffffffffff3c
:1034a000ffffffffffffffffffffffffffffffff2c
:1034b000ffffffffffff97946f298f29af31af31d7
:1034c0008f294e2194739eefffffffffffffffff49
:1034d000fffffffffffffffffffffffffffffffffc
:1034e000ffffffffffffffffffffffffffffffffec
:1034f000ffffffffffffffffffffffffffffffffdc
:10350000ffffffffffffffffffffffffffffffffcb
:10351000ffffffffffffffffffffffffffffffffbb
:10352000ffffffffffffffffffffffffffffffffab
:10353000ffffffffffffffffffffffffffffffff9b
:10354000ffffffffffffffffffffffffffffffff8b
:10355000ffffffffffffffffffffffffffffffff7b
:10356000ffffffffffffffffffffffffffffffff6b
:10357000ffffffffffffffffffffffffffffffff5b
:10358000ffffffffffffffffffffffffffffffff4b
:10359000ffffffffffffffffffffffffffffffff3b
:1035a000ffffffffffffffffffffffffffffffff2b
:1035b000ffffffffffffdcde714a2e21af31af318d
:1035c000af318f298f29bab5ffffffffffffffff44
:1035d000fffffffffffffffffffffffffffffffffb
:1035e000ffffffffffffffffffffffffffffffffeb
:1035f000ffffffffffffffff79ad6f298f29af317d
:10360000af31af312e21b2523de7ffffffffffff89
:10361000ffffffffffffffffffffffffffffffffba
:10362000ffffffffffffffffffffffffffffffffaa
:10363000ffffffffffffffffffffffffffffffff9a
:10364000ffffffffffffffffffffffffffffffff8a
:10365000ffffffffffffffffffffffffffffffff7a
:10366000ffffffffffffffffffffffffffffffff6a
:10367000ffffffffdfff79f6d3f4d0f32debecea89
:103680004debd0f3d3ec39f69effffffffffffffba
:10369000ffffffffffffffffffffffffffffffff3a
:1036a000ffffffffffffffffffffffffffffffff2a
:1036b000ffffffffffffffffffffffffffffffff1a
:1036c000ffffffffffffffffffffffffffffffff0a
:1036d000fffffffffffffffffffffffffffffffffa
:1036e000ffffffffffffffffffffffffffffffffea
:1036f000ffffffffbcd6103a6f29cf31af31af319a
:10370000af316f29dab5ffffdfffffffffffffffdc
:10371000ffffffffffffffffffffffffffffffffb9
:10372000dfffffffffffffffffffffffffffffffc9
:10373000ffffffffffffffffffff58a54f21af3146
:10374000af31af31d0314e2151423de7ffffffff96
:10375000ffffffffffffffffffffffffffffffff79
:10376000ffffffffffffffffffffffffffffffff69
:10377000ffffffffffffffffffffffffffffffff59
:10378000ffffffffffffffffffffffffffffffff49
:10379000ffffffffffffffffffffffffffffffff39
:1037a000ffffffffffffffffffffffffffffffff29
:1037b0009af6cff3a8e9c4e862e863e863e883e82f
:1037c00063e863e862e8a3e887e94eebdbf6ffff16
:1037d000fffffffffffffffffffffffffffffffff9
:1037e000ffffffffffffffffffffffffffffffffe9
:1037f000ffffffffffffffffffffffffffffffffd9
:10380000ffffffffffffffffffffffffffffffffc8
:10381000ffffffffffffffffffffffffffffffffb8
:10382000ffffffffffffffffffffffffffffffffa8
:10383000ffff1de731426f29cf31af31af31af31db
:103840004e21f79cffffdfffffffffffffffffffa2
:10385000ffffffffffffffffffffffff9cf7aec56e
:103860004abdf8e6ffffffffffffffffffffffff7f
:10387000ffffffffffffffffffffffff768c2e2103
:10388000af31af31af31cf314e21b2527eefffffba
:10389000ffffffffffffffffffffffffffffffff38
:1038a000ffffffffffffffffffffffffffffffff28
:1038b000ffffffffffffffffffffffffffffffff18
:1038c000ffffffffffffffffffffffffffffffff08
:1038d000fffffffffffffffffffffffffffffffff8
:1038e000ffffffffffffffffffffffff9afeccea96
:1038f000a3e842e883e8c4e8e4e8e4e8e4e8e4e8cc
:10390000e4e8e4e8e4e8e4e8a4e801e8a7e9beffc5
:10391000ffffffffffffffffffffffffffffffffb7
:10392000ffffffffffffffffffffffffffffffffa7
:10393000ffffffffffffffffffffffffffffffff97
:10394000ffffffffffffffffffffffffffffffff87
:10395000ffffffffffffffffffffffffffffffff77
:10396000ffffffffffffffffffffffffffffffff67
:10397000bff7f25a4e21cf31af31af31af314e21c7
:10398000946bffffffffffffffffffffffffffff46
:10399000ffffffffffffffffffffd6de29b5c5ac2e
:1039a000e6acc5acefc5beffffffffffffffffffab
:1039b000ffffffffffffffffffffffffdffff25ae9
:1039c0004f21af31af31af31d0312e21b473ffff72
:1039d000fffffffffffffffffffffffffffffffff7
:1039e000ffffffffffffffffffffffffffffffffe7
:1039f000ffffffffffffffffffffffffffffffffd7
:103a0000ffffffffffffffffffffffffffffffffc6
:103a1000ffffffffffffffffffffffffffffffffb6
:103a2000ffffffffffffffffffff31f4a4e862e8a5
:103a3000e4e8e5e8e4e8c4e8c4e8c4e8c4e8c4e8c5
:103a4000c4e8c4e8c4e8c4e8e4e805e942e831ecc5
:103a5000ffffffffffffffffffffffffffffffff76
:103a6000ffffffffffffffffffffffffffffffff66
:103a7000ffffffffffffffffffffffffffffffff56
:103a8000ffffffffffffffffffffffffffffffff46
:103a9000ffffffffffffffffffffffffffffffff36
:103aa000ffffffffffffffffffffffffffffffff26
:103ab00097942e21cf31af31af31af318f29f0390b
:103ac0003de7ffffffffffffffffffffffffffffe0
:103ad000ffffffffffffbdf7efcdc5aca5ace7ac27
:103ae000c5ac07b573d6ffffdfffffffffffffff8a
:103af000ffffffffffffffffffffffffffff9cd662
:103b00008f29af31af31af31af31af312e2179ad28
:103b1000ffffffffffffffffffffffffffffffffb5
:103b2000ffffffffffffffffffffffffffffffffa5
:103b3000ffffffffffffffffffffffffffffffff95
:103b4000ffffffffffffffffffffffffffffffff85
:103b5000ffffffffffffffffffffffffffffffff75
:103b6000ffffffffffff9effabea22e8c4e8e5e8a6
:103b7000c4e8e4e8e4e8c4e8c4e8c4e8c4e8c4e8a5
:103b8000c4e8c4e8c4e8c4e8e4e8e5e8e4e8a4e894
:103b9000baf6ffffffffffffffffffffffffffff83
:103ba000ffffffffffffffffffffffffffffffff25
:103bb000ffffffffffffffffffffffffffffffff15
:103bc000ffffffffffffffffffffffffffffffff05
:103bd000fffffffffffffffffffffffffffffffff5
:103be000ffffffffffffffffffffffffffffdcd631
:103bf000af318f29af31af31af31af312e21d79ceb
:103c0000ffffffffffffffffffffffffffffffffc4
:103c1000fffffffff7e649b5a4a408b574de19e776
:103c2000d6de7bf7ffff39ef6bbd8bbd3aefffffb1
:103c3000ffffffffffffffffffffffffffffffff94
:103c4000157c4e21af31af31af31af318f293042ca
:103c50005eefffffffffffffffffffffffffffff25
:103c6000ffffffffffffffffffffffffffffffff64
:103c7000ffffffffffffffffffffffffffffffff54
:103c8000ffffffffffffffffffffffffffffffff44
:103c9000ffffffffffffffffffffffffffffffff34
:103ca000ffffffff7dff29ea42e805e9e4e8c4e8f9
:103cb000e4e883e883e8e4e8c4e8c4e8c4e8c4e8e6
:103cc000c4e8c4e8c4e8e4e8a3e862e8e4e883e818
:103cd0006aeaffffffffffffffffffffffffffff9e
:103ce000ffffffffffffffffffffffffffffffffe4
:103cf000ffffffffffffffffffffffffffffffffd4
:103d0000ffffffffffffffffffffffffffffffffc3
:103d1000ffffffffffffffffffffffffffffffffb3
:103d2000ffffffffffffffffffffffffffffb4737a
:103d30004e21af31af31af31af318f2931429eefdc
:103d4000ffffffffffffffffffffffffffffffff83
:103d5000beff10cec6acc5ac8bbd5befffffffff57
:103d6000ffffffff11cea5aca4a4c5ace7ac53d6b2
:103d7000dfffffffffffffffffffffffffffffff73
:103d8000fdded0318f29af31af31af31af312e21d0
:103d90009694ffffffffffffffffffffffffffff07
:103da000ffffffffffffffffffffffffffffffff23
:103db000ffffffffffffffffffffffffffffffff13
:103dc000ffffffffffffffffffffffffffffffff03
:103dd000fffffffffffffffffffffffffffffffff3
:103de000ffffdfff6aea42e805e9c4e8c4e8e4e867
:103df00083e88bea6aea83e8e4e8c4e8c4e8c4e854
:103e0000c4e8c4e8e4e883e8a7e92deb05e9c4e8e1
:103e100042e814f5ffffffffffffffffffffffff7b
:103e2000ffffffffffffffffffffffffffffffffa2
:103e3000ffffffffffffffffffffffffffffffff92
:103e4000ffffffffffffffffffffffffffffffff82
:103e5000ffffffffffffffffffffffffffffffff72
:103e6000fffffffffffffffffffffffffddecf3183
:103e70008f29af31af31af31af312e21768cffffbb
:103e8000ffffffffffffffffffffffffffff18e741
:103e90006bbdc5ace6ac08b59df7ffffdeffffffcd
:103ea000f8e608b5a5acefcd52d629b5e6acc5ac61
:103eb0006bbd39efffffffffffffffffffffffffbe
:103ec000ffffb4734e21af31af31af31af318f2926
:103ed00031427eefffffffffffffffffffffffff0e
:103ee000ffffffffffffffffffffffffffffffffe2
:103ef000ffffffffffffffffffffffffffffffffd2
:103f0000ffffffffffffffffffffffffffffffffc1
:103f1000ffffffffffffffffffffffffffffffffb1
:103f2000ffffafeb22e805e9c4e8c4e8e5e842e8b2
:103f3000d0f3ffffffff8eeb42e8e5e8c4e8c4e8fa
:103f4000c4e8e4e8a3e846e91cffffff59f6c4e82b
:103f5000a4e825e95dffffffffffffffffffffff75
:103f6000ffffffffffffffffffffffffffffffff61
:103f7000ffffffffffffffffffffffffffffffff51
:103f8000ffffffffffffffffffffffffffffffff41
:103f9000ffffffffffffffffffffffffffffffff31
:103fa000ffffffffffffffffffffffffb7942e2183
:103fb000af31af31af31af31af318f299cd6ffff79
:103fc000ffffffffffffffffffffffffbeff6bbd18
:103fd000a4a407b5e7b4e6ac31cebefffffffffff8
:103fe000f8e6adc519efffffffff6abde6acc6ac52
:103ff000e7acd6deffffffffffffffffffffffff86
:10400000ffffdabd4e21af31af31af31af31af314c
:104010004e2179adffffffffffffffffffffffff17
:10402000ffffffffffffffffffffffffffffffffa0
:10403000ffffffffffffffffffffffffffffffff90
:10404000ffffffffffffffffffffffffffffffff80
:10405000ffffffffffffffffffffffffffffffff70
:1040600018f662e8e4e8c4e8c4e8e4e863e84aea89
:10407000ffffffffffffbeff87e9a3e8e4e8c4e816
:10408000c4e8e4e862e8d7f5ffffbeffffff51f4a4
:1040900062e863e82debffffffffffffffffffff7d
:1040a000ffffffffffffffffffffffffffffffff20
:1040b000ffffffffffffffffffffffffffffffff10
:1040c000ffffffffffffffffffffffffffffffff00
:1040d000fffffffffffffffffffffffffffffffff0
:1040e000fffffffffffffffffffffffff35a4e2120
:1040f000af31af31af31af316f29924adffffffff0
:10410000ffffffffffffffffffffffffffffdeffe0
:1041100052d6e6acc6ac07b5c5ac4abdf7e6ffff64
:10412000ffffffffffff9cf7adc5c6acc5acadc53b
:104130009cf7fffffffffffffffffffffffffffffa
:10414000ffff5eef30428f29af31af31af31af317a
:104150004e21746bffffffffffffffffffffffff1d
:10416000ffffffffffffffffffffffffffffffff5f
:10417000ffffffffffffffffffffffffffffffff4f
:10418000ffffffffffffffffffffffffffffffff3f
:10419000ffffffffffffffffffffffffffffffff2f
:1041a00049ea83e8e4e8c4e8e4e8c4e8e4e8fbf6c4
:1041b000ffffffffffffffffb6f542e8e4e8c4e8ba
:1041c000e5e842e810f4ffffdfffffffffffdfff3e
:1041d000c8e9a3e883e8f8f5ffffffffffffffff53
:1041e000ffffffffffffffffffffffffffffffffdf
:1041f000ffffffffffffffffffffffffffffffffcf
:10420000ffffffffffffffffffffffffffffffffbe
:10421000ffffffffffffffffffffffffffffffffae
:10422000ffffffffffffffffffff5ee7d0318f299a
:10423000af31af31af31af312e21f57bffffffff43
:10424000ffffffffffffffffffffbeffb6deffff29
:10425000ffff39ef6bbdc5ace7b4e6acc6ac31d6f9
:10426000bdf7deffb5de29b5a4a407b594d6ffffe0
:10427000ffff94de72d6ffffffffffffffffffff90
:10428000ffffffff33634e21af31af31af31af31ad
:104290006f2951429ef7ffffffffffffffffffff68
:1042a000ffffffffffffffffffffffffffffffff1e
:1042b000ffffffffffffffffffffffffffffffff0e
:1042c000fffffffffffffffffffffffffffffffffe
:1042d000ffffffffffffffffffffffffffffd7f520
:1042e00062e8e4e8c4e8c4e8e4e862e835f5ffff22
:1042f000ffffffffffffffffffffecea62e805e9ba
:1043000063e829eadfffffffffffffffffffffff7b
:1043100018f683e8a3e8a7e9beffffffffffffff52
:10432000ffffffffffffffffffffffffffffffff9d
:10433000ffffffffffffffffffffffffffffffff8d
:10434000ffffffffffffffffffffffffffffffff7d
:10435000ffffffffffffffffffffffffffffffff6d
:10436000ffffffffffffffffffff7bce8f29af3176
:10437000af31af31af31af312e21f89cffffffffde
:10438000ffffffffffffffffffffbef707ad4abdc7
:1043900039efffffffff53d6e7acc6ac07b5c5ac9e
:1043a00029b56abdc5aca4ac8cbd5befffff7cf743
:1043b000cec584a40fceffffffffffffffffffff6f
:1043c000ffffffff96942e21af31af31af31af31f8
:1043d0008f29af311ddfffffffffffffffffffff53
:1043e000ffffffffffffffffffffffffffffffffdd
:1043f000ffffffffffffffffffffffffffffffffcd
:10440000ffffffffffffffffffffffffffffffffbc
:10441000ffffffffffffffffffffffffffff0debb2
:1044200062e8e5e8c4e8e4e862e80cebffffdfffe0
:10443000fffffffffffffffffffffcfee4e8c4e814
:1044400005e9fbfeffffffffffffffffffffffff91
:10445000ffff6eeb83e862e831f4ffffffffffff31
:10446000ffffffffffffffffffffffffffffffff5c
:10447000ffffffffffffffffffffffffffffffff4c
:10448000ffffffffffffffffffffffffffffffff3c
:10449000ffffffffffffffffffffffffffffffff2c
:1044a000ffffffffffffffffffff79ad4e21af31a1
:1044b000af31af31af31af316e21b9b5ffffffff83
:1044c000ffffffffffffffffffffbef729b5c4acf3
:1044d000c5acefcddeffffff5aef8cbdc5ace7ac3e
:1044e000e7aca5ace7ac53d6ffffffff95de08b500
:1044f000c6acc5ac10ceffffffffffffffffffff05
:10450000ffffffff38a52e21af31af31af31af3103
:10451000af318f299cd6ffffffffffffffffffff9b
:10452000ffffffffffffffffffffffffffffffff9b
:10453000ffffffffffffffffffffffffffffffff8b
:10454000ffffffffffffffffffffffffffffffff7b
:10455000ffffffffffffffffffffffff9eff46e99b
:10456000a4e8e4e8c4e8e4e8a3e8e8e99effffff84
:10457000ffffffffffffffffffffffff92f442e897
:10458000e4e839f6ffffffffffffffffffffffff3c
:10459000ffff7dff46e9a3e8c4e8bafeffffffff87
:1045a000ffffffffffffffffffffffffffffffff1b
:1045b000ffffffffffffffffffffffffffffffff0b
:1045c000fffffffffffffffffffffffffffffffffb
:1045d000ffffffffffffffffffffffffffffffffeb
:1045e000ffffffffffffffffffff59ad2e21af31a0
:1045f000af31af31af31af318f297bceffffffff3e
:10460000ffffffffffffffffffffbef729b5c5acb0
:10461000adc54abd07add6deffffffff94d608b596
:10462000a5ac6bbd39efffff7bf7adc5a5ace6ac24
:1046300007b5c5ac30ceffffffffffffffffffff59
:10464000ffffffff99ad4e21af31af31af31af3139
:10465000af318f295bceffffffffffffffffffffa3
:10466000ffffffffffffffffffffffffffffffff5a
:10467000ffffffffffffffffffffffffffffffff4a
:10468000ffffffffffffffffffffffffffffffff3a
:10469000ffffffffffffffffffffffff59f683e86c
:1046a000e4e8c4e8c4e8c4e8e4e822e8f0ebffff8b
:1046b000ffffffffffffffffffffffffdfff09ea35
:1046c00022e8e8e9dfffffffffffffffffffffff3b
:1046d000ffffffff35f562e883e88aeaffffffff8f
:1046e000ffffffffffffffffffffffffffffffffda
:1046f000ffffffffffffffffffffffffffffffffca
:10470000ffffffffffffffffffffffffffffffffb9
:10471000ffffffffffffffffffffffffffffffffa9
:10472000ffffffffffffffffffff79ad4e21af311e
:10473000af31af31af31af318f29dcd6ffffffff93
:10474000ffffffffffffffffffff9df709b5a4a4d9
:1047500073d6ffff31cec5accdc59cf7ffff7bef15
:1047600095deffffffff94dee7b4a4ac4abd08b5b9
:10477000e7b4c5ac10ceffffffffffffffffffff59
:10478000ffffffffdabd6e29af31af31af31af317f
:10479000af318f299cd6ffffffffffffffffffff19
:1047a000ffffffffffffffffffffffffffffffff19
:1047b000ffffffffffffffffffffffffffffffff09
:1047c000fffffffffffffffffffffffffffffffff9
:1047d000ffffffffffffffffffffffff35f542e891
:1047e000e4e805e922e851f472f442e8a4e89afe0c
:1047f000ffffffffffffffffffffffffffff38f699
:10480000a3e842e851ecffffffffffffffffffffc0
:10481000ffffffffffffabea83e863e814f5ffff4c
:10482000ffffffffffffffffffffffffffffffff98
:10483000ffffffffffffffffffffffffffffffff88
:10484000ffffffffffffffffffffffffffffffff78
:10485000ffffffffffffffffffffffffffffffff68
:10486000ffffffffffffffffffff3bc66f29af31d9
:10487000af31af31af31af318f29bcd6ffffffff72
:10488000ffffffffffffffffffff9df729b5a4a478
:1048900052d6ffffffff39ef07ade7acb5defffff4
:1048a000ffff7bef8cbdc5ace6ac94d6beff10ce4f
:1048b000c5acc5ac10ceffffffffffffffffffff42
:1048c000ffffffff99b54e21af31af31af31af31af
:1048d0008f29af31fddeffffffffffffffffffff6f
:1048e000ffffffffffffffffffffffffffffffffd8
:1048f000ffffffffffffffffffffffffffffffffc8
:10490000ffffffffffffffffffffffffffffffffb7
:10491000ffffffffffffffffdfffffff72f442e833
:1049200005e963e809eaffffdfffc8e922e86aea70
:10493000ffffffffffffffffffffffffffffffff87
:104940006eeb42e8e4e8dbfeffffffffffffffff47
:10495000ffffffffffffdbfec4e8a4e825e95dffe2
:10496000ffffffffffffffffffffffffffffffff57
:10497000ffffffffffffffffffffffffffffffff47
:10498000ffffffffffffffffffffffffffffffff37
:10499000ffffffffffffffffffffffffffffffff27
:1049a000ffffffffffffffffffff1de7b0318f2974
:1049b000af31af31af31af318f295bceffffffff9a
:1049c000ffffffffffffffffffff9df708b5a4ac50
:1049d00011ceffffffffffff3aefe6aca4a451d6d4
:1049e000ffffadc5a4ace6acd6e6ffffffff73d674
:1049f000c5acc5ac30ceffffffffffffffffffffe1
:104a0000ffffffff59a52e21af31af31af31af31dd
:104a10008f2931427eefffffffffffffffffffff08
:104a2000ffffffffffffffffffffffffffffffff96
:104a3000ffffffffffffffffffffffffffffffff86
:104a4000ffffffffffffffffffffffffffffffff76
:104a5000ffffffffffffffffdfffffff51f442e813
:104a6000e4e8c4e8bbfeffffffff18f683e862e856
:104a7000d3f4ffffffffffffffffffffffffffff7d
:104a80005dff46e942e8abeaffffffffffffffffe4
:104a9000ffffffffffffffff51f462e863e84eeb0b
:104aa000ffffffffffffffffffffffffffffffff16
:104ab000ffffffffffffffffffffffffffffffff06
:104ac000fffffffffffffffffffffffffffffffff6
:104ad000ffffffffffffffffffffffffffffffffe6
:104ae000ffffffffffffffffffffdfffb2526f2956
:104af000af31af31af31af314e2179adffffffffa5
:104b0000ffffffffffffffffffff9df708b5e6accc
:104b1000e6ac0fcebdf7ffffffff4abda4a48cbdde
:104b2000ffff8dc5c5ac08b5bdffffff5aef6bbddc
:104b3000e6acc5ac30ceffffffffffffffffffff7e
:104b4000ffffffffd79c2e21af31af31af31af3127
:104b50004e215363ffffffffffffffffffffffff3c
:104b6000ffffffffffffffffffffffffffffffff55
:104b7000ffffffffffffffffffffffffffffffff45
:104b8000ffffffffffffffffffffffffffffffff35
:104b9000ffffffffffffffffdfffffff72f463e890
:104ba00062e814f5ffffffffffffffffafeb22e816
:104bb00025e93cffffffffffffffffffffffffffb8
:104bc000ffff14f562e863e814f5ffffffffffff46
:104bd000ffffffffffffffffbeffc8e9a3e883e879
:104be00018f6ffffffffffffffffffffffffffffc5
:104bf000ffffffffffffffffffffffffffffffffc5
:104c0000ffffffffffffffffffffffffffffffffb4
:104c1000ffffffffffffffffffffffffffffffffa4
:104c2000ffffffffffffffffffffffff568c2e215f
:104c3000af31af31af31af312e21b794ffffffff5e
:104c4000ffffffffffffffffffff9df708b5c5acac
:104c5000efcdacc507ad73d673d6e6acc5acacc56d
:104c6000ffffadc5c5ace7b4d6de52d6e6acc5ace9
:104c700007b5c5ac30ceffffffffffffffffffff13
:104c8000ffffffff946b4e21af31af31af31af313a
:104c90002e21189dffffffffffffffffffffffff1c
:104ca000ffffffffffffffffffffffffffffffff14
:104cb000ffffffffffffffffffffffffffffffff04
:104cc000fffffffffffffffffffffffffffffffff4
:104cd000ffffffffffffffffffffffff55f500e8ae
:104ce0002debffffdfffffffffffffff7eff87e9e9
:104cf00021e82debffffffffffffffffffffffff9f
:104d0000ffffffff6aea42e846e95dffffffffffa2
:104d1000ffffffffffffffffffff18f683e862e8da
:104d200035f5ffffffffffffffffffffffffffff67
:104d3000ffffffffffffffffffffffffffffffff83
:104d4000ffffffffffffffffffffffffffffffff73
:104d5000ffffffffffffffffffffffffffffffff63
:104d6000ffffffffffffffffffffffff9cd68f2925
:104d7000af31af31af31af314e215463ffffffff91
:104d8000ffffffffffffffffffff9df709b5a4a493
:104d900094deffff94dee6aca4a4e6acc5acacc5e3
:104da000ffffacc5c5ace7b4e6ac83a429b529b513
:104db000e6acc5ac30cefffffffffffffffffffffc
:104dc000ffffbff7914a6f29af31af31af318f2964
:104dd000d0311de7ffffffffffffffffffffffffda
:104de000ffffffffffffffffffffffffffffffffd3
:104df000ffffffffffffffffffffffffffffffffc3
:104e0000ffffffffffffffffffffffffffffffffb2
:104e1000ffffffffffffffffffffffff18f646e961
:104e20007dffffffffffffffffffffffffff75f5a8
:104e300083e883e8d7f5ffffffffffffffffffffda
:104e4000ffffffff9af6c4e842e84eebffffffffcb
:104e5000ffffffffffffffffffffffff6eeb01e81c
:104e600079f6ffffffffffffffffffffffffffffe1
:104e7000ffffffffffffffffffffffffffffffff42
:104e8000ffffffffffffffffffffffffffffffff32
:104e9000ffffffffffffffffffffffffffffffff22
:104ea000ffffffffffffffffffffffffffff53635a
:104eb0004e21af31af31af318f29103a7eefffff76
:104ec000ffffffffffffffffffff9df707ada4ac54
:104ed00094d6ffffffff7cf76bbdc5acc5acacbd86
:104ee000ffffacc5c5ace7ac08b552d6bef7b6de21
:104ef000e6aca4a431ceffffffffffffffffffffe3
:104f0000ffff9cd68f29af31af31af31af314e218a
:104f1000f57bffffffffffffffffffffffffffff2f
:104f2000ffffffffffffffffffffffffffffffff91
:104f3000ffffffffffffffffffffffffffffffff81
:104f4000ffffffffffffffffffffffffffffffff71
:104f5000ffffffffffffffffffffffff5dff9af671
:104f6000ffffffffffffffffffffffffffff1cff34
:104f7000e4e883e8a7e99effffffffffffffffffd5
:104f8000ffffffffffff10f463e883e8f8f5ffff82
:104f9000ffffffffffffffffffffffff5dffa7e931
:104fa0005dffffffffffffffffffffffffffffffb3
:104fb000ffffffffffffffffffffffffffffffff01
:104fc000fffffffffffffffffffffffffffffffff1
:104fd000ffffffffffffffffffffffffffffffffe1
:104fe000ffffffffffffffffffffffffffff5bcea6
:104ff0006f29af31af31af31af314e21bab5ffffbd
:10500000ffffffffffffffffffffffff52d6a4a43c
:1050100010ceffffffffffff5befe6acc5acacc5fa
:10502000ffffacc5c5ace7ac18e7ffffffff18e713
:10503000a4a48cbd7cf7ffffffffffffffffffff76
:10504000ffffd7942e21af31af31af318f29d0314f
:10505000fddeffffffffffffffffffffffffffff83
:10506000ffffffffffffffffffffffffffffffff50
:10507000ffffffffffffffffffffffffffffffff40
:10508000ffffffffffffffffffffffffffffffff30
:10509000ffffffffffffffffffffffffffffffff20
:1050a000ffffffffffffffffffffffffffffb3f467
:1050b00062e805e942e810ecffffffffffffffff9a
:1050c000ffffffffffff9eff25e983e8c8e9beff62
:1050d000fffffffffffffffffffffffffffffbf6ed
:1050e000dffffffffffffffffffffffffffffffff0
:1050f000ffffffffffffffffffffffffffffffffc0
:10510000ffffffffffffffffffffffffffffffffaf
:10511000ffffffffffffffffffffffffffffffff9f
:10512000ffffffffffffffffffffffffffffffff8f
:10513000f57b2e21d031af31af314e21746bffffa3
:10514000ffffffffffffffffffffffffffff19e76d
:105150006abd8cbd7befffffffff28b5a4acacc5db
:10516000ffff8dbdc5ac28b59df7ffffffff39eff1
:1051700031ceffffffffffffffffffffffffffff3e
:10518000dfffb2526f29af31af31cf312e21f79c03
:10519000ffffffffffffffffffffffffffffffff1f
:1051a000ffffffffffffffffffffffffffffffff0f
:1051b000ffffffffffffffffffffffffffffffffff
:1051c000ffffffffffffffffffffffffffffffffef
:1051d000ffffffffffffffffffffffffffffffffdf
:1051e000ffffffffffffffffffffffffbaf6c4e86f
:1051f000c4e8e4e8c4e8a3e89af6ffffffffffff76
:10520000ffffffffffff92f463e805e942e811f4b6
:10521000ffffffffffffffffffffffffffffffff9e
:10522000ffffffffffffffffffffffffffffffff8e
:10523000ffffffffffffffffffffffffffffffff7e
:10524000ffffffffffffffffffffffffffffffff6e
:10525000ffffffffffffffffffffffffffffffff5e
:10526000ffffffffffffffffffffffffffffffff4e
:105270007eef714a6f29af31af31af318f299cd6a4
:10528000ffffffffffffffffffffffffffffffff2e
:10529000deff30ce07b5efc5efcde6acc5acacc593
:1052a000ffff8cbdc5ac08b59bf7fffffffffffffd
:1052b000fffffffffffffffffffffffffffffffffe
:1052c000dabd6f29af31af31cf312e215363dfff0c
:1052d000ffffffffffffffffffffffffffffffffde
:1052e000ffffffffffffffffffffffffffffffffce
:1052f000ffffffffffffffffffffffffffffffffbe
:10530000ffffffffffffffffffffffffffffffffad
:10531000ffffffffffffffffffffffffffffffff9d
:10532000ffffffffffffffffffffdfff09ea83e84b
:10533000e4e8c4e8e4e863e84aeaffffffffffffb0
:10534000ffffffffbafea4e8c4e8e4e8c4e8a3e86e
:105350009af6ffffffffffffffffffffffffffffcb
:10536000ffffffffffffffffffffffffffffffff4d
:10537000ffffffffffffffffffffffffffffffff3d
:10538000ffffffffffffffffffffffffffffffff2d
:10539000ffffffffffffffffffffffffffffffff1d
:1053a000ffffffffffffffffffffffffffffffff0d
:1053b000ffff9cd6d0318f29af31af314e21746bb6
:1053c000ffffffffffffffffffffffffffffffffed
:1053d000ffffffff3aef6abd83a4e6acc5acacc5e6
:1053e000ffffadc5c5ace7ac7bf7ffffffffffffdd
:1053f000ffffffffffffffffffffffffffffdfffdd
:10540000d2526f29af31cf314e21b2527eefffff22
:10541000ffffffffffffffffffffffffffffffff9c
:10542000ffffffffffffffffffffffffffffffff8c
:10543000ffffffffffffffffffffffffffffffff7c
:10544000ffffffffffffffffffffffffffffffff6c
:10545000ffffffffffffffffffffffffffffffff5c
:10546000ffffffffffffffffffffcfeb42e805e974
:10547000c4e8c4e8c4e805e942e8f4f4ffffdfff4c
:10548000ffffdfff29ea83e8e4e8c4e8e4e863e833
:105490004aeaffffffffffffffffffffffffffffe6
:1054a000ffffffffffffffffffffffffffffffff0c
:1054b000fffffffffffffffffffffffffffffffffc
:1054c000ffffffffffffffffffffffffffffffffec
:1054d000ffffffffffffffffffffffffffffffffdc
:1054e000ffffffffffffffffffffffffffffffffcc
:1054f000ffffffff3bc6af316f29af31af314e2108
:10550000dabdffffffffffffffffffffffffffff12
:10551000ffffffffffffffffb5de08b583a4adc5aa
:10552000ffff8cbd83a4cec5ffffffffffffffff82
:10553000fffffffffffffffffffffffffffff89ce5
:105540004e21af31af314e21914a3de7ffffffffc2
:10555000ffffffffffffffffffffffffffffffff5b
:10556000ffffffffffffffffffffffffffffffff4b
:10557000ffffffffffffffffffffffffffffffff3b
:10558000ffffffffffffffffffffffffffffffff2b
:10559000ffffffffffffffffffffffffffffffff1b
:1055a000ffffffffffffffffd7f562e8e4e8c4e875
:1055b000c4e8c4e8c4e8e4e8c4e805e93dffffff47
:1055c000ffff31f442e805e9c4e8c4e8c4e8e5e8cf
:1055d00042e8f4f4ffffffffffffffffffffffffc5
:1055e000ffffffffffffffffffffffffffffffffcb
:1055f000ffffffffffffffffffffffffffffffffbb
:10560000ffffffffffffffffffffffffffffffffaa
:10561000ffffffffffffffffffffffffffffbef7e3
:105620009cceffffffffffffffffffffffffffff1e
:10563000ffffdfffffff5bc6d0316f29af316f295e
:1056400031423de7ffffffffffffffffffffffffcf
:10565000ffffffffffffffffffff9cf7adc5acc5de
:10566000ffffcec573d6dfffffffffffffffffff8a
:10567000ffffffffffffffffffffffff7bceaf310d
:105680008f29af314e2151421de7ffffdfffffffa2
:10569000ffffffffffffffffffffffffffff5bceef
:1056a000dfffffffffffffffffffffffffffffff2a
:1056b000fffffffffffffffffffffffffffffffffa
:1056c000ffffffffffffffffffffffffffffffffea
:1056d000ffffffffffffffffffffffffffffffffda
:1056e000ffffffffffff3dff46e9a3e8e4e8c4e852
:1056f000c4e8c4e8c4e8c4e8e4e863e88bea3cff33
:1057000096f5a3e8c4e8c4e8c4e8c4e8c4e8e4e85b
:10571000c4e805e93dffffffffffffffffffffffbd
:10572000ffffffffffffffffffffffffffffffff89
:10573000ffffffffffffffffffffffffffffffff79
:10574000ffffffffffffffffffffffffffffffff69
:10575000ffffffffffffffffffffffffffffd794ec
:105760008f29fddeffffffffffffffffffffffffb2
:10577000ffffffffffffffffdcde103a8f29cf3175
:105780004e21135bbff7ffffffffffffffffffff90
:10579000ffffffffffffffffffffffffffff7befad
:1057a000ffffbef7ffffffffffffffffffffffff52
:1057b000fffffffffffffffffffffdde31426f290d
:1057c000af318f2951425de7ffffffffffffffff72
:1057d000ffffffffffffffffffffffff1bc64e2185
:1057e00099b5ffffffffffffffffffffffffffff79
:1057f000ffffffffffffffffffffffffffffffffb9
:10580000ffffffffffffffffffffffffffffffffa8
:10581000ffffffffffffffffffffffffffffffff98
:10582000ffffffffffff2deb01e825e9c4e8c4e817
:10583000c4e8c4e8c4e8c4e8c4e8e4e883e804e9e8
:10584000a3e8c4e8e4e8c4e8c4e8c4e8c4e8c4e8f9
:10585000e4e863e8cceadfffffffffffffffffffa5
:10586000ffffffffffffffffffffffffffffffff48
:10587000ffffffffffffffffffffffffffffffff38
:10588000ffffffffffffffffffffffffffffffff28
:10589000ffffffffffffffffffffffffbef75142cc
:1058a0002e21914a79addab5b9b5b9b5dab5dabd17
:1058b000dab5b9b5b9b5b9b51abe33636f29af3129
:1058c000af314e21746bdfffffffffffffffffffd4
:1058d000ffffffffffffffffffffffffffffffffd8
:1058e000ffffffffffffffffffffffffffffffffc8
:1058f000ffffffffffffffff1ddf714a6f29af3181
:10590000af316f295363fabdb9b5b9b5b9b5b9b5fa
:10591000b9b5dab5dabddabdfabd58ad30422e21df
:10592000d25affffffffffffffffffffffffffff59
:10593000ffffffffffffffffffffffffffffffff77
:10594000ffffffffffffffffffffffffffffffff67
:10595000ffffffffffffffffffffffffffffffff57
:10596000ffffffffffff39f666e942e805e9e4e8db
:10597000c4e8c4e8c4e8c4e8c4e8c4e8e4e8c4e8a7
:10598000e4e8e4e8c4e8c4e8c4e8c4e8c4e8e4e857
:10599000e5e842e8a7e97dffffffffffffffffff0c
:1059a000ffffffffffffffffffffffffffffffff07
:1059b000fffffffffffffffffffffffffffffffff7
:1059c000ffffffffffffffffffffffffffffffffe7
:1059d000ffffffffffffffffffffffffffffd7946a
:1059e0004e21af316f216f296f296f296f296f29e0
:1059f0006f296f296f296f294e218f29af31af3160
:105a0000af31d0316f2154639eefffffffffffffe7
:105a1000ffffffffffffffffffffffffffffffff96
:105a2000ffffffffffffffffffffffffffffffff86
:105a3000ffffffffffffbcd651426f29d031af31ce
:105a4000af31af318f294e216f296f296f296f290f
:105a50006f296f296f296f216f296f21af314f2176
:105a6000b9b5ffffffffffffffffffffffffffffd6
:105a7000ffffffffffffffffffffffffffffffff36
:105a8000ffffffffffffffffffffffffffffffff26
:105a9000ffffffffffffffffffffffffffffffff16
:105aa000ffffffffffffffff3cffabea42e8a3e879
:105ab000e5e8e4e8e4e8c4e8c4e8c4e8c4e8e4e805
:105ac000c4e8c4e8c4e8c4e8e4e8e4e8e5e8a3e836
:105ad00042e8ecea5dffffffffffffffffffffff74
:105ae000ffffffffffffffffffffffffffffffffc6
:105af000ffffffffffffffffffffffffffffffffb6
:105b0000ffffffffffffffffffffffffffffffffa5
:105b1000ffffffffffffffffffffdfffdfffbef71e
:105b2000d2520e196f294e212e214e214e214e2187
:105b30004e212e214e214e212e212e212e212e218d
:105b40004e214e214e21cd1030423bc6dfffffffdc
:105b5000ffffffffffffffffffffffffffffffff55
:105b6000ffffffffffffffffffffffffffffffff45
:105b7000ffffffffdabd6f29ed184e212e212e21e8
:105b80002e214e212e212e214e214e212e212e213d
:105b90004e214e214e214e214e216f290e19946b1c
:105ba000ffffffffffffffffffffffffffffffff05
:105bb000fffffffffffffffffffffffffffffffff5
:105bc000ffffffffffffffffffffffffffffffffe5
:105bd000ffffffffffffffffffffffffffffffffd5
:105be000ffffffffffffffffffffffff14f587e948
:105bf00042e883e8c4e8e4e8e5e8e4e8e4e8e4e867
:105c0000e4e8e4e8e5e8e4e8c4e863e842e8a8e9b1
:105c100055f5ffffffffffffffffffffffffffff48
:105c2000ffffffffffffffffffffffffffffffff84
:105c3000ffffffffffffffffffffffffffffffff74
:105c4000ffffffffffffffffffffffffffffffff64
:105c5000ffffffffffffffffffffffffffffffff54
:105c60005eeff79cf79cf79c59a539a5f79cf79c2c
:105c700018a559a5d79cf79c59a518a518a559ade5
:105c8000f79cf79c59a538a5b79438a5ffffffffef
:105c9000ffffffffffffffffffffffffffffffff14
:105ca000ffffffffffffffffffffffffffffffff04
:105cb000ffffbff718a539a579adf79cf79c59ad43
:105cc00059a5f79c59ad59adf79cf89c59ad59a50c
:105cd000f89c189d38a59ab518a5f89c79adffffda
:105ce000ffffffffffffffffffffffffffffffffc4
:105cf000ffffffffffffffffffffffffffffffffb4
:105d0000ffffffffffffffffffffffffffffffffa3
:105d1000ffffffffffffffffffffffffffffffff93
:105d2000ffffffffffffffffffffffffffffbeffc4
:105d3000f4f46aeae4e862e842e862e863e883e8e7
:105d400063e862e842e862e8e5e88bea55f5dfffe0
:105d5000ffffffffffffffffffffffffffffffff53
:105d6000ffffffffffffffffffffffffffffffff43
:105d7000ffffffffffffffffffffffffffffffff33
:105d8000ffffffffffffffffffffffffffffffff23
:105d9000ffffffffffffffffbade14a5f3a434ad42
:105da0007defffffffffffff38cebadefffffffff3
:105db0001be717c6ffffffff38ce9df75ceff7c567
:105dc000ffffffff38ce7defffffffff18c638c68d
:105dd000ffffffff3ce734adf3a414a59ad6ffff05
:105de000fbdeb6b5ffffffffffffffff3cef55ad4a
:105df000bef7fffffffff7c517c6ffffffffb6bdea
:105e000058cefffff7c517c6ffffffffd6bd38ce40
:105e1000ffffffff7defd6bdffffffffffffb6b522
:105e20003ce7fffffbe696b5ffffffffffffffff2d
:105e3000ffffffffffffffffffffffffffffffff72
:105e4000ffffffffffffffffffffffffffffffff62
:105e5000ffffffffffffffffffffffffffffffff52
:105e6000ffffffffffffffffffffffffffffffff42
:105e7000fffffffffbf655f510ec0deb8bea6aea2e
:105e80008bea0deb10ec76f51cffffffffffffff29
:105e9000ffffffffffffffffffffffffffffffff12
:105ea000ffffffffffffffffffffffffffffffff02
:105eb000fffffffffffffffffffffffffffffffff2
:105ec000ffffffffffffffffffffffffffffffffe2
:105ed000fffffffffffffffff08362104952a6396b
:105ee000c7391ce7ffff5def82188631bef7ffff61
:105ef000718c000059ceffff663196b514a50000e5
:105f000038c6ffff863114a5ffff9ef7452965318e
:105f1000bef7ffff96b54108284a0842e42059ce53
:105f200055ad2529dfffffffdfffffff318c0000ac
:105f300096b5ffff5defe42061105defbbde000072
:105f4000284a7def0429a2189ef779ce0000e73990
:105f5000bff7ffffae7b0000d7bdffff9ef7042118
:105f6000ec62ffff14a5c318ffffffffffffffff59
:105f7000ffffffffffffffffffffffffffffffff31
:105f8000ffffffffffffffffffffffffffffffff21
:105f9000ffffffffffffffffffffffffffffffff11
:105fa000ffffffffffffffffffffffffffffffff01
:105fb000fffffffffffffffffffffffffffffffff1
:105fc000ffffffffffffffffffffffffffffffffe1
:105fd000ffffffffffffffffffffffffffffffffd1
:105fe000ffffffffffffffffffffffffffffffffc1
:105ff000ffffffffffffffffffffffffffffffffb1
:10600000ffffffffffffffffffffffffffffffffa0
:10601000ffffffffffffffffcf83aa52ffff7defd0
:106020002429f7bdfffff3a486316531f7bdffffdb
:10603000d39c41088a52ffff0842b6b575b52000cf
:106040006952ffff284a55adffff75b5a639863165
:1060500055adffff75b56531ffffffff284a308c56
:10606000b6b5a639dfffffffffffbef7294a86312d
:10607000cb5affff5def08424529f7c576b5a21858
:10608000eb5a7def2842e32059ce14a5e420aa5212
:10609000ffff9ef7c741a6390c63ffff9ef708423a
:1060a00041089ad6b6b54529ffffffffffffffff66
:1060b000ffffffffffffffffffffffffdfffffff10
:1060c000ffffffffffffffffffffffffffffffffe0
:1060d000ffffffffffffffffffffffffffffffffd0
:1060e000ffffffffffffffffffffffffffffffffc0
:1060f000ffffffffffffffffffffffffffffffffb0
:10610000ffffffffffffffffffffffffffffffff9f
:10611000ffffffffffffffffffffffffffffffff8f
:10612000ffffffffffffffffffffffffffffffff7f
:10613000ffffffffffffffffffffffffffffffff6f
:10614000ffffffffffffffffffffffffffffffff5f
:10615000ffffffffffffffff318cc318494a4529ae
:106160008a52dfffffff494a55ad10842c63ffffc1
:10617000518c694aa73914a58a52b6b514a5084aa4
:10618000e741f3a48a5234adffff8a52d39cb29cfc
:106190006952ffffb6b5c3206d6b4d6ba63959ce62
:1061a00075ad8631dfffffffffffb6bd0842dbdec6
:1061b00065311ce79ef7084aab5a3084cf7b494ac9
:1061c000cb5a5def494a284a518cae7b69526952dd
:1061d000ffff55ad284abad645293ce7dfff284adc
:1061e0006952aa5a55ad4529ffffffffffffffff88
:1061f000ffffffffffffffffffffffffffffffffaf
:10620000ffffffffffffffffffffffffffffffff9e
:10621000ffffffffffffffffffffffffffffffff8e
:10622000ffffffffffffffffffffffffffffffff7e
:10623000ffffffffffffffffffffffffffffffff6e
:10624000ffffffffffffffffffffffffffffffff5e
:10625000ffffffffffffffffffffffffffffffff4e
:10626000ffffffffffffffffffffffffffffffff3e
:10627000ffffffffffffffffffffffffffffffff2e
:10628000ffffffffffffffffffffffffffffffff1e
:10629000ffffffffffffffff1084e739f7c555ad94
:1062a000a63996b55defa318ae7bcb5a2429dfff44
:1062b000718c4d6b75ad6531a739f7bdd39ccb6241
:1062c000d7bd45318639b6b59ef7c3184d6b4d6bba
:1062d000c3189ef7d7bd0421718ca2181084ffff4c
:1062e00014a5a639dfffffffffff2c6b4529929411
:1062f000a218b294dfffc741b29408428a52ef83da
:106300008a527def284a1084284a69523084294aeb
:10631000ffff0c63a6397194a218f3a4ffffa639fe
:1063200018c66952284ac739ffffffffffffffff6a
:10633000fffffffffffffffffffffbdef39c5defb3
:10634000ffffffffffffffffffffbad6b6b5ffff5e
:10635000ffffffffffffffffffffffffffffffff4d
:10636000ffffffffffffffffffffffffffffffff3d
:10637000ffffffffffffffffffffffffffffffff2d
:10638000dfffdfffdfffdfffdfffffffffffffffbd
:10639000ffffffffffffffffffffffffffffffff0d
:1063a000ffffffffffffffffffffffffdfffffff1d
:1063b000ffffffffffffffffffffffffffffffffed
:1063c000ffffffffffffffffffffffffffffffffdd
:1063d000ffffffffffffffffcf7b494affff7def7e
:1063e0002529518cb29c25290c630c63e32096b5ba
:1063f000d39caa52ffff8a52000038c6d39c494a58
:10640000ffffcb5a000059ce34ade3200c630c6380
:10641000042114a518c60429ffff55ad82181ce7f6
:1064200055ad8631deffffff5def6529aa5aec62ac
:10643000294a08425defa63918c64529284a34add5
:10644000294a7defc73996b50421695234ad284aef
:106450001ce76531aa5a0c63e841294adfff8631ff
:106460009ad618c62008c739ffffffffffffffffbe
:10647000ffffffffffffffffffff69520000e74143
:106480009ef7ffffdfffffff59cec31820083084bf
:10649000ffffffffffffffffffffffffffffffff0c
:1064a000fffffffffffffffffffffffffffffffffc
:1064b000ffffffffffffffffffffffffffffffffec
:1064c000ffffffffffffffffffffffffffffffffdc
:1064d000ffffffffffffffffffffffffffffffffcc
:1064e000ffffffffffffffffffffffffffffffffbc
:1064f000ffffffffffffffffffffffffffffffffac
:10650000ffffffffffffffffffffffffffffffff9b
:10651000ffffffffffffffff7194a31886312529be
:10652000294a1ce7e841b39cffffffff8e73eb6233
:10653000b29ccb5affff79cea21818c6f3a46952b9
:10654000ffff9ad6c320d7bdaa521084ffffffffda
:10655000718c6952b6b56631bef7ffff8a522c6b5b
:1065600055adc739bef7ffff14a5a639ffffffffe2
:106570003ce7452996b50842dbde69528e73d7bdec
:10658000494a9ef7c73979ce6a52cf7bb6b58a524f
:10659000d39ce741fffffffffbde252918c6084219
:1065a00038c6ffffab5a8631ffffffffffffffff3b
:1065b000ffffffffffffffff7def65290421611053
:1065c0001084ffffdfffffff694aa218c318284aa3
:1065d000ffff7def96b579ceffff9ef775ad34a531
:1065e00034a534a534a514a55def3ce7f39c34a590
:1065f00014a514a534a5f4a459ceffffffff75ad73
:10660000518c719471947194718c18c6ffffffffc7
:1066100059ce14a534a534a534a514a5d7bdffffc4
:10662000b6b514a57ef7ffffffff1ce7d39cf7bdaf
:10663000dfffb6b559ceffff18c6b6b5b7bdb6bdbc
:10664000b6bdb6b5f7bddfffffffffffffffffffe2
:10665000ffffffffffffffffbef71ce71ce7fbdeae
:10666000ffffffff3cefffffffffffffffff7def9f
:106670009ef79ef7ffffffff5defdfffbef77defa9
:10668000ffffffff9ef7bef77defffffffffffff5e
:10669000dfff7defdfff1ce7fffffffffffffbe6f4
:1066a000bef79ef7ffffffffbef7bef7ffffffff3e
:1066b000ffff5def9ef75defffff9ef7bef7dfff89
:1066c0005defffff3ce7ffff9ef79ef7dfff3cef2c
:1066d0005def7defffffffffffff3ce7ffff7def7b
:1066e000dfffffff9ef75deffffffffffffffffff5
:1066f000ffffffffffffffffbad6e3200421e420e6
:10670000c31879d6ffff34ad62100421c318863157
:10671000ffff59ce00000c63dfff284a2008410824
:106720006110410862100000718cf7bd00008210fa
:1067300061106110611041108210fbde9294000024
:1067400041086110611061104108611059ceb6b561
:1067500041084108611041086110410882105def55
:10676000084220083ce7ffffffff38c60000aa5a96
:106770001ce70000494affff6531410882106110a3
:106780006110611041082c63ffffffffffffffff57
:10679000ffffffffffffffffbef79ef77defffff4d
:1067a0005deffffffce659ce9ef779ce9ad6dbde91
:1067b0009ef71ce779ce79ce3ce79ef7ffff5defb1
:1067c000bad679cedbde5def9ad659cebef7ffffa3
:1067d000ffff59cedbdefffffbde38c6fbe6ffff27
:1067e0001ce79ad679ce5defbad659ce9ef7dfff79
:1067f00018c67defdfff9ef7bef77def5defffff71
:106800009ef7dfffdfff18c67defffff5defffffa5
:10681000ffffbef718c63ce7ffffbef718c65defe7
:106820007def9ef7ffff1ce7ffffffffffffffff6e
:10683000fffffffffffffffff7bd6110aa5a2d6b9f
:106840000008aa5a7defa63961108e738631a2180e
:106850005def9ad621088e733ce78210a73918c6df
:106860009ad679ce9ad659ce5defb6b520009294dd
:106870007def3ce75def10840000f7bdae732008ac
:10688000518cdbdebad6dbde4d6b0000f39c10844e
:106890000000ef839ad679ce9ad69ad69ad6dfffa1
:1068a000494ac31875b538c638ced39c6110ec621e
:1068b0003ce76210aa5affff8631c7395def3ce71b
:1068c0005deffbde65312529ffffffffffffffffc7
:1068d000ffffffffffffffff75b5718c695296b593
:1068e00014a514a50c63ae7b75adef83c73914a551
:1068f000ef8355ad494a4d6b7194518cfbde4d6b66
:1069000014a5a631b29c10840c63718c5defffff5f
:10691000308c6d73ec62f7bd2c6bcf7bb6bdffff87
:10692000b6b50842ae7314a5494a518cbad6108444
:106930008e73ef7bd39c55adbad630842c63b29462
:1069400014a5d7bd8e73cf7b2c6bd7bdef83ffff14
:10695000bef74d6bcf7b0c63bad66d731084108479
:10696000b6b5ef7bf39c1084ffffffffffffffff37
:10697000ffffffffffffffffd39c00006d731ce7cd
:10698000c3180421494aa218a6317def08424108e4
:106990009ad6bad620088e735def82100c63ffff83
:1069a000ffffffffffffffffffff96b520088e737d
:1069b00055ad14a555adeb5aa218fbdeae7b000019
:1069c000f7bdffffffffffff718c000034a5518c66
:1069d000000059ceffffffffffffffffffffffff9c
:1069e000284aa21841080008000861108210cb5afa
:1069f0003ce761108a52ffff8631653118c618c620
:106a000038c696b504212429ffffffffffffffffd3
:106a1000ffffffffffffffff96b5718c6d73eb5a11
:106a2000308c38c6cf7bae7bfbde5defcf7bffffcc
:106a30008e73dfffb29479ce18c6308c3de76d6b54
:106a4000ffff4d6bffff71940c63d39cdfff9ef73c
:106a5000eb62ffff38ce8e736e738e739ad6ffff94
:106a6000ffff518cfbde59ce284a718cf7bd8e7327
:106a7000ffffffff75ad6a52eb5a10843084aa5aab
:106a80001084518cae73ffffd39c8e737194ffff03
:106a900059ce4d6bffffd39c4d6b92949ef7d39cc8
:106aa000bef730848a52bef7fffffffffffffffff4
:106ab000ffffffffffffffffef7b2008ef7bffffe4
:106ac0008e7361100421611034a5ffff8a522000eb
:106ad00096b5dbde20088e733ce782106a52bef763
:106ae000bef7bef7bef7bef7dfff96b58210c3183c
:106af00041104110411041100842bef74d6b000893
:106b000055addfff9ef7bef7ef7b0000f39c3084ae
:106b1000000096b5ffffdfffffffffffdfffffff76
:106b2000494ac318518cd39cf39cef836110eb62ec
:106b30003ce76110aa5affffc739c31882106210e0
:106b400062106210a2181084ffffffffffffffff1b
:106b5000ffffffffffffffff75adcf7b71949294a6
:106b6000863196b596b5ae7330841ce72c63dfff93
:106b70004d6b7df71084d7bdf7bd6d7318c66d6b77
:106b8000dfffcb5abef73084518c79cebef7bef70b
:106b9000eb5a9ad6b29410846d73f7bd7defdfff88
:106ba000dfffcf7b79ced7bdcb5a79ce9ad60c6397
:106bb000bad634a59294518c75adae73719434a548
:106bc000452914a50c63fbde8e73308caf7b5def23
:106bd0009ad6ab5afbde8e7392948e7338c685318b
:106be0009ad6f7bd308cffffffffffffffffffffcf
:106bf000ffffffffffffffff8a520000d39cffff54
:106c00005defa6396108aa52dfffffff0c630000a9
:106c10001084dbde00002c6b7defe4206210452940
:106c2000653165318631c318308cf7bd00001084a2
:106c30001ce7bbdefbdeec620000bad6108400006d
:106c40000421653165316531e320000096b5d39ca0
:106c500000002429a639a639a639a63986311ce7b1
:106c6000284241085defffffffff59ce0000aa5afe
:106c70001ce70000494affff45292429dbdefbde33
:106c8000fbdedbde1ce7ffffffffffffffffffff79
:106c9000ffffffffffffffff79ce96b5b6b5dfff21
:106ca0009294dbde3084ef7b1ce79ef714a5ffff98
:106cb00014a5ffffb7bd9ad6ffff318c6d73fbdec5
:106cc000ffffd39cffffb6bdcf7b71947defffff2d
:106cd0009ad66e73518c9ef714a5ffffffffffff3e
:106ce000ffff75b53cef1ce78e73518cdbde38ceb1
:106cf0002d6b96b559ce79ce7def75adb6b5dfff6c
:106d0000b2941ce718c64d6b14a59ef7ef7bef7b82
:106d10009ad6f7bd4d6bf39cffff96b5ae7bd39c27
:106d2000ffffbad6f7bdffffffffffffffffffff2b
:106d3000ffffffffffffffffae7baa5a59ceffff09
:106d4000ffff3ce776b59ef7ffffffff34a5694ada
:106d5000f39c1ce78a529294ffffb6b5eb62eb629c
:106d6000cb5acb5aeb628a5218c6bad6694a18c6b1
:106d7000ffffffffffff75ad694a1ce75def8e73f4
:106d8000eb5aeb5acb5aeb5aeb5a518cdfff9ef77a
:106d9000ef7bcb5a8a526a52494a08420c63bef7cb
:106da0001084cb5a3ce7dfffdfff9ad68a527194fa
:106db0007defaa5a3084ffff6e736d73fffffffff4
:106dc000ffffffffffffffffffffffffffffffffd3
:106dd000ffffffffffffffffdbde75adb6b596b52a
:106de000b6b5b6b5b6b596b5b6b595b5b6b595b5ad
:106df000b6b595b5b6b596b596b5b6b596b5b6b5bc
:106e000075ad96b575ad96b595b575ad95b595b5a8
:106e1000d6bd96b5b6b596b5b6b575ad75ad95b5e5
:106e200075ad96b596b596b596b575ad75add6bd3d
:106e300096b5d7bd96b596b595b596b596b596b5b2
:106e4000b6b575b5d7bd95b5d7bd96b596b575ad83
:106e500075add7bd95b5d7bd95b5d7bd75add6bd0b
:106e600096b596b596b5f7bdffffffffffffffff95
:106e7000ffffffffffffffffffffffffffffffff22
:106e8000ffffffffffffffffffffffffffffffff12
:106e9000ffffffffffffffffffffffffffffffff02
:106ea000fffffffffffffffffffffffffffffffff2
:106eb000ffffffffffffffffffffffffffffffffe2
:106ec000ffffffffffffffffffffffffffffffffd2
:106ed000ffffffffffffffffffffffffffffffffc2
:106ee000ffffffffffffffffffffffffffffffffb2
:106ef000ffffffffffffffffffffffffffffffffa2
:106f0000ffffffffffffffffffffffffffffffff91
:106f1000ffffffffffffffff9ef73ce73ce73ce77b
:106f20003ce73ce73ce73ce73ce73ce73ce73ce749
:106f30003ce73ce73ce73ce73ce73ce73ce75def10
:106f40005def7def5def3ce73ce73ce73ce73ce78e
:106f50003ce73ce73ce73ce73ce73ce73ce73ce719
:106f60005def3ce73ce73ce77def3ce73ce73ce797
:106f70003ce73ce73ce73ce73ce73ce73ce73ce7f9
:106f80003ce77def3ce73ce73ce73ce73ce73ce7a0
:106f90003ce73ce73ce73ce73ce73ce73ce73ce7d9
:106fa0003ce73ce73ce75defffffffffffffffff34
:106fb000ffffffffffffffffffffffffffffffffe1
:106fc000ffffffffffffffffffffffffffffffffd1
:106fd000ffffffffffffffffffffffffffffffffc1
:106fe000ffffffffffffffffffffffffffffffffb1
:106ff000ffffffffffffffffffffffffffffffffa1
:10700000ffffffffffffffffffffffffffffffff90
:10701000ffffffffffffffffffffffffffffffff80
:10702000ffffffffffffffffffffffffffffffff70
:10703000ffffffffffffffffffffffffffffffff60
:10704000ffffffffffffffffffffffffffffffff50
:10705000ffffffffffffffffffffffffffffffff40
:10706000ffffffffffffffffffffffffffffffff30
:10707000ffffffffffffffffffffffffffff1ce71b
:10708000d7bdd7bd9ef7ffffffffffffffffffff4d
:10709000ffffffffffffffffffffffffffffffff00
:1070a000fbdedfffffffbef7d39cffffffffffff0d
:1070b000ffffffffffffffffffffffffffffffffe0
:1070c0003ce775b5ffffffffffffffffffffffff7f
:1070d000ffffffffffffffffffffffffffffffffc0
:1070e000ffffffffffffffffffffffffffffffffb0
:1070f000ffffffffffffffffffffffffffffffffa0
:10710000ffffffffffffffffffffffffffffffff8f
:10711000ffffffffffffffffffffffffffffffff7f
:10712000ffffffffffffffffffffffffffffffff6f
:10713000ffffffffffffffffffffffffffffffff5f
:10714000ffffffffffffffffffffffffffffffff4f
:10715000ffffffffffffffffffffffffffffffff3f
:10716000ffffffffffffffffffffffffffffffff2f
:10717000ffffffffffffffffffffffffffffffff1f
:10718000ffffffffffffffffffffffffffffffff0f
:10719000ffffffffffffffffffffffffffffffffff
:1071a000ffffffffffffffffffffffffffffffffef
:1071b000ffffffffffffffffffffffff9ef7ef83d4
:1071c000ffffd7bddbdedbde59ceffffbef7ffffe3
:1071d000ffffffffffffffffffffffffffffffffbf
:1071e000aa5ad7bdffff9ef7eb5a9ef7ffffffff9e
:1071f000ffffdfffffffffffbef7ffffffffffff08
:10720000dbde318cffffffffffffffffffffffff14
:10721000ffffffffffffffffffffffffffffffff7e
:10722000ffffffffffffffffffffffffffffffff6e
:10723000ffffffffffffffffffffffffffffffff5e
:10724000ffffffffffffffffffffffffffffffff4e
:10725000ffffffffffffffffffffffffffffffff3e
:10726000ffffffffffffffffffffffffffffffff2e
:10727000ffffffffffffffffffffffffffffffff1e
:10728000ffffffffffffffffffffffffffffffff0e
:10729000fffffffffffffffffffffffffffffffffe
:1072a000ffffffffffffffffffffffffffffffffee
:1072b000ffffffffffffffffffffffffffffffffde
:1072c000ffffffffffffffffffffffffffffffffce
:1072d000ffffffffffffffffffffffffffffffffbe
:1072e000ffffffffffffffffffffffffffffffffae
:1072f000ffffffffffffffffffffffffdfff4d6b04
:107300001084dffffffff08314a579d655ad55ad8e
:10731000fbe6518cffffd7bd1ce7ffffffff1ce71b
:10732000b29c1084ffffbfff6d6bd39cf39cdfff0b
:1073300079cef39c38c618c634a5d7bddffff7bd9c
:1073400034a51084ffffffffffffffffffffffffdc
:10735000ffffffffffffffffffffffffffffffff3d
:10736000ffffffffffffffffffffffffffffffff2d
:10737000ffffffffffffffffffffffffffffffff1d
:10738000ffffffffffffffffffffffffffffffff0d
:10739000fffffffffffffffffffffffffffffffffd
:1073a000ffffffffffffffffffffffffffffffffed
:1073b000ffffffffffffffffffffffffffffffffdd
:1073c000ffffffffffffffffffffffffffffffffcd
:1073d000ffffffffffffffffffffffffffffffffbd
:1073e000ffffffffffffffffffffffffffffffffad
:1073f000ffffffffffffffffffffffffffffffff9d
:10740000ffffffffffffffffffffffffffffffff8c
:10741000ffffffffffffffffffffffffffffffff7c
:10742000ffffffffffffffffffffffffffffffff6c
:10743000ffffffffffffffffffffffffffffbef7a5
:107440006d73494a5def34a5f7bd9ad638c64d6bca
:107450009ef710849ad6f7c5bef7ffffffff34a54d
:107460009ad6eb621ce7ffff2c631ce7518cd7bd5b
:1074700034add7bd14a538ced7bd308496b575ad23
:107480009ef7308cffffffffffffffffffffffffb7
:10749000fffffffffffffffffffffffffffffffffc
:1074a000ffffffffffffffffffffffffffffffffec
:1074b000ffffffffffffffffffffffffffffffffdc
:1074c000ffffffffffffffffffffffffffffffffcc
:1074d000ffffffffffffffffffffffffffffffffbc
:1074e000ffffffffffffffffffffffffffffffffac
:1074f000ffffffffffffffffffffffffffffffff9c
:10750000ffffffffffffffffffffffffffffffff8b
:10751000ffffffffffffffffffffffffffffffff7b
:10752000ffffffffffffffffffffffffffffffff6b
:10753000ffffffffffffffffffffffffffffffff5b
:10754000ffffffffffffffffffffffffffffffff4b
:10755000ffffffffffffffffffffffffffffffff3b
:10756000ffffffffffffffffffffffffffffffff2b
:10757000ffffffffffffffffffffffffbef73ce73f
:10758000ffff9294729475adf7bd18c618c6af7b15
:10759000dfff9ad62c63bad6ffffffff7def75adf4
:1075a000bad6518cd39cffff2c6bbef7f39c14a56d
:1075b0007294ffff7def96b538c6b29c718c34a5ee
:1075c000ffff518cffffffffffffffffffffffffec
:1075d000ffffffffffffffffffffffffffffffffbb
:1075e000ffffffffffffffffffffffffffffffffab
:1075f000ffffffffffffffffffffffffffffffff9b
:10760000ffffffffffffffffffffffffffffffff8a
:10761000ffffffffffffffffffffffffffffffff7a
:10762000ffffffffffffffffffffffffffffffff6a
:10763000ffffffffffffffffffffffffffffffff5a
:10764000ffffffffffffffffffffffffffffffff4a
:10765000ffffffffffffffffffffffffffffffff3a
:10766000ffffffffffffffffffffffffffffffff2a
:10767000ffffffffffffffffffffffffffffffff1a
:10768000ffffffffffffffffffffffffffffffff0a
:10769000fffffffffffffffffffffffffffffffffa
:1076a000ffffffffffffffffffffffffffffffffea
:1076b000ffffffffffffffffffffffffbef7b39cd2
:1076c00079ce55ad9ad675b5729430849294ae73d6
:1076d0009ad6ffff308c5deffffffffff3a459ce7a
:1076e000ffff79d68a52dbde2c63dbdecf7b9ad6b6
:1076f0004d6bae739ad6cf7b14a5ae7338c66d6b47
:1077000075adaf7bdfffffffffffffffffffffff59
:10771000ffffffffffffffffffffffffffffffff79
:10772000ffffffffffffffffffffffffffffffff69
:10773000ffffffffffffffffffffffffffffffff59
:10774000ffffffffffffffffffffffffffffffff49
:10775000ffffffffffffffffffffffffffffffff39
:10776000ffffffffffffffffffffffffffffffff29
:10777000ffffffffffffffffffffffffffffffff19
:10778000ffffffffffffffffffffffffffffffff09
:10779000fffffffffffffffffffffffffffffffff9
:1077a000ffffffffffffffffffffffffffffffffe9
:1077b000ffffffffffffffffffffffffffffffffd9
:1077c000ffffffffffffffffffffffffffffffffc9
:1077d000ffffffffffffffffffffffffffffffffb9
:1077e000ffffffffffffffffffffffffffffffffa9
:1077f000ffffffffffffffffffffffffffffbef7e2
:107800001ce73ce7ffffdfff5defdfff3ce79ef794
:107810007ef7bad638c6ffffffffffff3ce77defdc
:10782000ffff9ef71ce75def5def7def1ce7ffffbd
:10783000bef7badeffff9ef73ce77defffff7def6f
:107840001ce79ef7ffffffffffffffffffffffffac
:10785000ffffffffffffffffffffffffffffffff38
:10786000ffffffffffffffffffffffffffffffff28
:10787000ffffffffffffffffffffffffffffffff18
:10788000ffffffffffffffffffffffffffffffff08
:10789000fffffffffffffffffffffffffffffffff8
:1078a000ffffffffffffffffffffffffffffffffe8
:1078b000ffffffffffffffffffffffffffffffffd8
:1078c000ffffffffffffffffffffffffffffffffc8
:1078d000ffffffffffffffffffffffffffffffffb8
:1078e000ffffffffffffffffffffffffffffffffa8
:1078f000ffffffffffffffffffffffffffffffff98
:10790000ffffffffffffffffffffffffffffffff87
:10791000ffffffffffffffffffffffffffffffff77
:10792000ffffffffffffffffffffffffffffffff67
:10793000ffffffffffffffffffffffffffffffff57
:10794000ffffffffffffffffffffffffffffffff47
:10795000fbde8e735defffffffffffffffffffff0b
:10796000ffffffffffffffffffffffffffffffff27
:10797000ffffffffffffffffffffffffffffffff17
:10798000ffffffffffffffffffffffffffffffff07
:10799000fffffffffffffffffffffffffffffffff7
:020000040000fa
:10a2f000f0b5de4657464e464546e0b5d5b000209f
:10a3000004f0bef805f05af80028fbd14df2884061
:10a31000c0f200000c2104f0dbfd43f20023c4f284
:10a32000000340f2310940f2010a01224946504639
:10a33000585440f2320841461030585440f2330c21
:10a34000614658544227d85d1043c0b2d8554426c0
:10a35000985d1043c0b298554525585d1043c0b272
:10a3600058551331585c1043c0b258544720195cfb
:10a370001143c9b2195443f20003c4f20003494621
:10a380005046585441461030585461465854d95d8f
:10a390001143c9b2d955995d1143c9b29955595d57
:10a3a0001143c9b259554621595c1143c9b23530e0
:10a3b00019540130195c0a43d2b21a5440f6000312
:10a3c000c4f20003da6944f200010a43da6104f0de
:10a3d000f5ff0028fbd14df29840c0f200000c219f
:10a3e00004f076fd41f60043c4f20003f022402160
:10a3f000995041f60043c4f20003b031b03a5858c6
:10a400000242fcd004f0daff0028fbd14df2a84054
:10a41000c0f200000c2104f05bfd43f60003c4f21f
:10a42000002301221a7043f60003c4f20023198ca2
:10a430001142fcd104f0c2ff0028fbd14df2b8401c
:10a44000c0f200000c2104f043fd43f60003c4f207
:10a45000002304225a7001329a700b325a812f3233
:10a460005a731a7802210a431a7043f60002c4f2a2
:10a4700000220223118c0800184013901942f9d1d0
:10a4800004f09cff0028fbd14df2c840c0f2000050
:10a490000c2104f01dfd4faa4df27453c0f20003cd
:10a4a00031cb31c211001a680a609a888a809b7980
:10a4b0008b7104f083ff0028fbd14fa804f044ff08
:10a4c00001004fa804f004fd43f20025c4f200058a
:10a4d0000823ab6043f20004c4f20004a36040f21e
:10a4e0000012aa60a26040f20021a960a16040f2bf
:10a4f0000046ae60a66040f600084346ab60a3602d
:10a5000041f20007af60a76040f2480b00235846b5
:10a510002b5440f2490a50462b5440f24a0948460f
:10a520002b5440f24b0c60462b5401302b545846b0
:10a530002354504623544846235460462354013044
:10a540002354a961a1616a616261ae61a66143465b
:10a55000ab61a361af61a7617c3004f000feaf6125
:10a56000a761012004f0fbfd6f616761012004f029
:10a57000f6fdaf61a761012004f0f1fd6e61666137
:10a58000012003f0c8fd962004f0e9fd112003f03e
:10a59000c2fd40f2f41004f0e2fd3a2003f0bbfdee
:10a5a000052003f003fe012004f0d9fdb12003f0e3
:10a5b000b2fd012003f0fafd2c2003f0f7fd2d2061
:10a5c00003f0f4fdb22003f0a6fd012003f0eefd40
:10a5d0002c2003f0ebfd2d2003f0e8fdb32003f069
:10a5e0009afd012003f0e2fd2c2003f0dffd2d2079
:10a5f00003f0dcfd012003f0d9fd2c2003f0d6fd93
:10a600002d2003f0d3fdb42003f085fd072003f0d7
:10a61000cdfdc02003f07ffda22003f0c7fd022086
:10a6200003f0c4fd842003f0c1fdc12003f073fddd
:10a63000c52003f0bbfdc22003f06dfd0a2003f02e
:10a64000b5fd002003f0b2fdc32003f064fd8a20b5
:10a6500003f0acfd2a2003f0a9fdc42003f05bfd4c
:10a660008a2003f0a3fdee2003f0a0fdc52003f037
:10a6700052fd0e2003f09afd202003f04cfd362001
:10a6800003f049fda02003f091fd3a2003f043fdc3
:10a69000052003f08bfd2a2003f03dfd002003f090
:10a6a00085fd002003f082fd002003f07ffd9f2048
:10a6b00003f07cfd2b2003f02efd002003f076fd3f
:10a6c000002003f073fd002003f070fd7f2003f0f5
:10a6d0006dfde02003f01ffd0f2003f067fd1a2041
:10a6e00003f064fd0f2003f061fd182003f05efd10
:10a6f0002f2003f05bfd282003f058fd202003f0fd
:10a7000055fd222003f052fd1f2003f04ffd1b20ba
:10a7100003f04cfd232003f049fd372003f046fdf4
:10a72000002003f043fd072003f040fd022003f06a
:10a730003dfd102003f03afde12003f0ecfc0f207a
:10a7400003f034fd1b2003f031fd0f2003f02efd3c
:10a75000172003f02bfd332003f028fd2c2003f0fd
:10a7600025fd292003f022fd2e2003f01ffd3020bf
:10a7700003f01cfd302003f019fd392003f016fd15
:10a780003f2003f013fd002003f010fd072003f02d
:10a790000dfd032003f00afd102003f007fdf62055
:10a7a00003f0b9fc002003f001fd292003f0b3fc05
:10a7b000642004f0d4fc132003f0adfc0a2004f064
:10a7c000cefcae61a66180239b026b6063606b610f
:10a7d000636151230622ea54e2542e339932002158
:10a7e000002004f08ff94346ab61a3616e6166619e
:10a7f00040f2f024c0f200044af20003e618258873
:10a80000280a03f035ffe8b203f032ff0234b44205
:10a81000f5d143f20023c4f2000340f200429a61f2
:10a8200043f20003c4f200039a6141f2883004f05d
:10a8300096fc00244ff6ff7500950423a02221000a
:10a84000002003f01cfc1c2004f089fc0434e4b25a
:10a85000802cf1d14ff6ff7004f01df82a230d93e0
:10a8600000230a9343f20029c4f2000902e00a948b
:10a870000d96d9464b461b6a9b0300d500e24ff666
:10a88000ff7004f008f84df2d842c0f20002012631
:10a8900001964ff6ff75009500230221232002f058
:10a8a0000eff4df2e842c0f200020196009500232f
:10a8b0001621352002f003ff4df2f442c0f20002ef
:10a8c00001960095002348212f2002f0f8fe139beb
:10a8d000129300230c930a9c0d9ecb4600f042fc81
:10a8e000542363434af20362934206dd40f2730a43
:10a8f00040f22c09542300f061fc40f2f41293fb67
:10a90000f2f340f2730a40f22c0900f057fc7a1e71
:10a91000534601934b4600934ff6ff7321000f9867
:10a9200003f024fdf6e27a1e534601934b46009352
:10a930004ff6ff7321000f9803f018fd14e3b442a3
:10a9400000dc30e3023cb44200db2ce334002ae3b9
:10a95000030005220521192002f0d2fc052702235d
:10a960005b4298460325a1462c0033004646984694
:10a9700062e0c0b201331a1ad2b2c9b243460093a0
:10a98000012303f07cfb6ee06b1d99b21bb29f2b81
:10a990006bdd0a23db1b1b0439d419235b1b18b2a4
:10a9a000c043c017184000b22a001932131c12b25b
:10a9b0007f2a00dd7f231bb298421bdd19235b1b1e
:10a9c00018b2c043c017184000b22a001932131c35
:10a9d00012b27f2a00dd7f231bb298421adcc0b27c
:10a9e00001331a1ad2b2f9b243460093012303f09d
:10a9f00046fb0fe0c0b201331a1ad2b20a21c91bba
:10aa0000c9b243460093012303f039fbd6e73bb2ba
:10aa10009f2bd3dd002e44db7b1f1bb21b1b5b0077
:10aa200005369e1936b2013d2cb27b1c9bb2043f09
:10aa30003fb2a7423adc1f00a5b205235b1b99b2c7
:10aa40001b04a1d41e23db1b18b2c043c01718403f
:10aa500000b23a001432131c12b27f2a00dd7f23a9
:10aa60001bb2984285dd691d89b21e23db1b18b21b
:10aa7000c043c017184000b23a001432131c12b27f
:10aa80007f2a00dd7f231bb2984282dcc0b20133f3
:10aa90001a1ad2b2c9b243460093012303f0effa67
:10aaa00077e77b009b19073b1eb2bee74c46464644
:10aab00033002a223621502002f022fc33002b22c0
:10aac0003621502002f01cfc129674e2092c64dd41
:10aad00015aa0a2094fbf0f191fbf0f083001b18fb
:10aae0005b00cb1a303313708b005b185b00e31aea
:10aaf00030335370002393704ff6ff7300931c2381
:10ab000078222421142003f0bafa02235800c01836
:10ab1000800040425030c0b2042301934ff6ff73cf
:10ab20000093330015aa242102f0c9fd052794fbe8
:10ab3000f7f7300004f09efb0090022364227a2194
:10ab40001e2003f09cfafbb2984600960223424670
:10ab50007a211e2003f093fa312c4edc1bad4346c4
:10ab600030332b7025236b700023ab704ff6ff77cb
:10ab70000097083318227721862003f080fa0123fa
:10ab80000193009700232a007721862002f097fd89
:10ab90004df25445c0f2000571e215aa0a2194fb5a
:10aba000f1f18b005b185b00e31a30331370002364
:10abb00053704ff6ff7300931c2378222421142036
:10abc00003f05dfa0123a1e7052794fbf7f73000b6
:10abd00004f050fb0090022364227a211e2003f02f
:10abe0004efafab2009602237a211e2003f047faa9
:10abf00040f2f3139c4200dd21e21bad322394fbb3
:10ac0000f3f330332b700a2297fbf2f293009b1878
:10ac10005b00fb1a30336b702523ab700023eb70a5
:10ac20004ff6ff770097083318227721862003f02c
:10ac300026fa01230193009700232a00772186201a
:10ac400002f03dfd322c00dc27e1642c00dc29e120
:10ac5000962c00dc2be1c82c04dc4df26845c0f2d8
:10ac600000050ce240f22c139c4204dc4df25c45e2
:10ac7000c0f2000503e24df24845c0f20005fee1d6
:10ac800044f2165003f007fe4df23852c0f20002b3
:10ac90000421042002f0a9fd4df23c52c0f2000252
:10aca0000421522002f0a1fd4df24052c0f20002f8
:10acb0002e21042002f099fd4df24452c0f2000210
:10acc0002e21522002f091fd4df24c52c0f20002b2
:10acd0005821042002f089fd4df25052c0f20002ca
:10ace0005821522002f081fd40f20008454632e032
:10acf0000135edb2042d64d8381c03f073ff060053
:10ad00000f004df2005bc0f2000b08941b9803f09b
:10ad100069ff06900791504603f064ff0490059187
:10ad2000199803f05fff02900391404603f05aff29
:10ad30000090019132003b0059461da804f028fb09
:10ad400004f03cfb0028fbd11da804f0fdfa010033
:10ad50001da804f0bdf84b461b6a8024a4022342c0
:10ad600007d1322004f0fbf94b461b6a234200d185
:10ad700080e51bab00931aab19aa18a917a801f01c
:10ad800041fa1a9b9a46181c02f057f90400189bc6
:10ad90009846181c02f004fa0600179f381c02f0af
:10ada000b0fdb44200da3400e343db171c408442b8
:10adb00000da040040f2f4139c4299dd40f2f414ee
:10adc00096e7381c03f00eff02000b004df25455bd
:10add000c0f2000529001da804f0dafa4df25c5318
:10ade000c0f200031daa0421042003f02afa404601
